{
  "contractName": "SafelySend",
  "abi": [
    {
      "inputs": [],
      "stateMutability": "nonpayable",
      "type": "constructor"
    },
    {
      "inputs": [],
      "name": "accumTips",
      "outputs": [
        {
          "internalType": "uint256",
          "name": "",
          "type": "uint256"
        }
      ],
      "stateMutability": "view",
      "type": "function",
      "constant": true
    },
    {
      "inputs": [
        {
          "internalType": "address",
          "name": "",
          "type": "address"
        },
        {
          "internalType": "uint256",
          "name": "",
          "type": "uint256"
        }
      ],
      "name": "fromMap",
      "outputs": [
        {
          "internalType": "uint256",
          "name": "",
          "type": "uint256"
        }
      ],
      "stateMutability": "view",
      "type": "function",
      "constant": true
    },
    {
      "inputs": [],
      "name": "nextId",
      "outputs": [
        {
          "internalType": "uint256",
          "name": "",
          "type": "uint256"
        }
      ],
      "stateMutability": "view",
      "type": "function",
      "constant": true
    },
    {
      "inputs": [],
      "name": "owner",
      "outputs": [
        {
          "internalType": "address",
          "name": "",
          "type": "address"
        }
      ],
      "stateMutability": "view",
      "type": "function",
      "constant": true
    },
    {
      "inputs": [
        {
          "internalType": "address",
          "name": "",
          "type": "address"
        },
        {
          "internalType": "uint256",
          "name": "",
          "type": "uint256"
        }
      ],
      "name": "toMap",
      "outputs": [
        {
          "internalType": "uint256",
          "name": "",
          "type": "uint256"
        }
      ],
      "stateMutability": "view",
      "type": "function",
      "constant": true
    },
    {
      "inputs": [
        {
          "internalType": "uint256",
          "name": "",
          "type": "uint256"
        }
      ],
      "name": "transactionMap",
      "outputs": [
        {
          "internalType": "uint256",
          "name": "sentTime",
          "type": "uint256"
        },
        {
          "internalType": "address",
          "name": "from",
          "type": "address"
        },
        {
          "internalType": "address",
          "name": "to",
          "type": "address"
        },
        {
          "internalType": "uint256",
          "name": "amount",
          "type": "uint256"
        },
        {
          "internalType": "uint256",
          "name": "unlockTime",
          "type": "uint256"
        },
        {
          "internalType": "bool",
          "name": "done",
          "type": "bool"
        }
      ],
      "stateMutability": "view",
      "type": "function",
      "constant": true
    },
    {
      "inputs": [
        {
          "internalType": "address",
          "name": "aToAddress",
          "type": "address"
        },
        {
          "internalType": "uint256",
          "name": "aDelayTime",
          "type": "uint256"
        },
        {
          "internalType": "uint256",
          "name": "aTip",
          "type": "uint256"
        }
      ],
      "name": "sendTransaction",
      "outputs": [],
      "stateMutability": "payable",
      "type": "function",
      "payable": true
    },
    {
      "inputs": [
        {
          "internalType": "uint256",
          "name": "aTransactionId",
          "type": "uint256"
        }
      ],
      "name": "withdrawTransaction",
      "outputs": [],
      "stateMutability": "nonpayable",
      "type": "function"
    },
    {
      "inputs": [
        {
          "internalType": "address",
          "name": "aToAddress",
          "type": "address"
        }
      ],
      "name": "checkTransactionsWaitingReceiver",
      "outputs": [
        {
          "internalType": "uint256[]",
          "name": "",
          "type": "uint256[]"
        }
      ],
      "stateMutability": "view",
      "type": "function",
      "constant": true
    },
    {
      "inputs": [
        {
          "internalType": "address",
          "name": "aFromAddress",
          "type": "address"
        }
      ],
      "name": "checkTransactionsWaitingSender",
      "outputs": [
        {
          "internalType": "uint256[]",
          "name": "",
          "type": "uint256[]"
        }
      ],
      "stateMutability": "view",
      "type": "function",
      "constant": true
    },
    {
      "inputs": [
        {
          "internalType": "uint256",
          "name": "aTransactionId",
          "type": "uint256"
        }
      ],
      "name": "abortTransaction",
      "outputs": [],
      "stateMutability": "nonpayable",
      "type": "function"
    },
    {
      "inputs": [],
      "name": "withdrawTips",
      "outputs": [],
      "stateMutability": "nonpayable",
      "type": "function"
    },
    {
      "inputs": [
        {
          "internalType": "address",
          "name": "newOwner",
          "type": "address"
        }
      ],
      "name": "transferOwner",
      "outputs": [],
      "stateMutability": "nonpayable",
      "type": "function"
    }
  ],
  "bytecode": "0x608060405234801561001057600080fd5b506000808055600255600180546001600160a01b03191633179055610c808061003a6000396000f3fe6080604052600436106100d25760003560e01c80638da5cb5b1161007f578063ce1ec6a211610059578063ce1ec6a214610213578063d21ba465146102af578063d4f7f36c146102c5578063fcfca2d4146102e557600080fd5b80638da5cb5b146101a8578063af133021146101e0578063cb08c342146101f357600080fd5b80634fb2e45d116100b05780634fb2e45d1461014457806361b8ce8c14610164578063882a14481461018857600080fd5b8063058ec70f146100d75780633aaa74b21461010d5780633ed0bbba14610124575b600080fd5b3480156100e357600080fd5b506100f76100f2366004610b29565b610305565b6040516101049190610b4b565b60405180910390f35b34801561011957600080fd5b50610122610371565b005b34801561013057600080fd5b5061012261013f366004610b8f565b610419565b34801561015057600080fd5b5061012261015f366004610b29565b6105a4565b34801561017057600080fd5b5061017a60005481565b604051908152602001610104565b34801561019457600080fd5b506101226101a3366004610b8f565b610683565b3480156101b457600080fd5b506001546101c8906001600160a01b031681565b6040516001600160a01b039091168152602001610104565b6101226101ee366004610ba8565b6108a1565b3480156101ff57600080fd5b506100f761020e366004610b29565b610a56565b34801561021f57600080fd5b5061027461022e366004610b8f565b600360208190526000918252604090912080546001820154600283015493830154600484015460059094015492946001600160a01b039283169492169290919060ff1686565b604080519687526001600160a01b039586166020880152939094169285019290925260608401526080830152151560a082015260c001610104565b3480156102bb57600080fd5b5061017a60025481565b3480156102d157600080fd5b5061017a6102e0366004610bdb565b610ac0565b3480156102f157600080fd5b5061017a610300366004610bdb565b610af1565b6001600160a01b03811660009081526005602090815260409182902080548351818402810184019094528084526060939283018282801561036557602002820191906000526020600020905b815481526020019060010190808311610351575b50505050509050919050565b6001546001600160a01b031633146103d05760405162461bcd60e51b815260206004820152601c60248201527f4f6e6c79206f776e65722063616e20776974686472617720746970730000000060448201526064015b60405180910390fd5b6002805460009182905560015460405191926001600160a01b039091169183156108fc0291849190818181858888f19350505050158015610415573d6000803e3d6000fd5b5050565b600081815260036020818152604092839020835160c0810185528154815260018201546001600160a01b03908116938201849052600283015416948101949094529182015460608401526004820154608084015260059091015460ff16151560a083015233146104f15760405162461bcd60e51b815260206004820152602960248201527f4f6e6c79207468652073656e6465722063616e2072657665727420612074726160448201527f6e73616374696f6e2e000000000000000000000000000000000000000000000060648201526084016103c7565b60a0810151156105435760405162461bcd60e51b815260206004820152601e60248201527f5472616e73616374696f6e20616c72656164792070726f6365737365642e000060448201526064016103c7565b6000828152600360209081526040808320600501805460ff1916600117905590830151606084015191516001600160a01b039091169282156108fc02929190818181858888f1935050505015801561059f573d6000803e3d6000fd5b505050565b6001546001600160a01b031633146105fe5760405162461bcd60e51b815260206004820152601b60248201527f6f6e6c79206f776e65722063616e206368616e6765206f776e6572000000000060448201526064016103c7565b6001600160a01b0381166106545760405162461bcd60e51b815260206004820152601f60248201527f646f6e277420736574206f776e657220746f206e756c6c20616464726573730060448201526064016103c7565b6001805473ffffffffffffffffffffffffffffffffffffffff19166001600160a01b0392909216919091179055565b600081815260036020818152604092839020835160c0810185528154815260018201546001600160a01b03908116938201939093526002820154909216938201939093529082015460608201526004820154608082015260059091015460ff1615801560a083015261075d5760405162461bcd60e51b815260206004820152602c60248201527f54686973207472616e73616374696f6e2068617320616c72656164792062656560448201527f6e20636f6d706c657465642e000000000000000000000000000000000000000060648201526084016103c7565b80608001514210156107bc5760405162461bcd60e51b815260206004820152602260248201527f5472616e73616374696f6e2063616e27742062652077697468647261776e2079604482015261195d60f21b60648201526084016103c7565b80604001516001600160a01b0316336001600160a01b0316146108475760405162461bcd60e51b815260206004820152602b60248201527f4f6e6c792072656365697665722063616e20776974686472617720746869732060448201527f7472616e73616374696f6e00000000000000000000000000000000000000000060648201526084016103c7565b600082815260036020526040808220600501805460ff1916600117905582810151606084015191516001600160a01b039091169282156108fc02929190818181858888f1935050505015801561059f573d6000803e3d6000fd5b60006108ad8234610c1b565b905060006108bb8442610c32565b9050348211156108fe5760405162461bcd60e51b815260206004820152600e60248201526d37bb32b9333637bb9032b93937b960911b60448201526064016103c7565b4281101561093f5760405162461bcd60e51b815260206004820152600e60248201526d37bb32b9333637bb9032b93937b960911b60448201526064016103c7565b6040805160c0810182524281523360208083018281526001600160a01b038a8116858701818152606087018a8152608088018a8152600060a08a01818152815482526003808a528c83208c51815598516001808b01805473ffffffffffffffffffffffffffffffffffffffff19908116938c1693909317905596516002808c01805490931691909a16179055935193880193909355905160048088019190915591516005968701805460ff191691151591909117905596875285528786208654815480840183559188528688209091015590855291835294832083548154928301825590845291909220909101559054610a3a908590610c32565b600255600054610a4b906001610c32565b600055505050505050565b6001600160a01b03811660009081526004602090815260409182902080548351818402810184019094528084526060939283018282801561036557602002820191906000526020600020908154815260200190600101908083116103515750505050509050919050565b60046020528160005260406000208181548110610adc57600080fd5b90600052602060002001600091509150505481565b60056020528160005260406000208181548110610adc57600080fd5b80356001600160a01b0381168114610b2457600080fd5b919050565b600060208284031215610b3b57600080fd5b610b4482610b0d565b9392505050565b6020808252825182820181905260009190848201906040850190845b81811015610b8357835183529284019291840191600101610b67565b50909695505050505050565b600060208284031215610ba157600080fd5b5035919050565b600080600060608486031215610bbd57600080fd5b610bc684610b0d565b95602085013595506040909401359392505050565b60008060408385031215610bee57600080fd5b610bf783610b0d565b946020939093013593505050565b634e487b7160e01b600052601160045260246000fd5b600082821015610c2d57610c2d610c05565b500390565b60008219821115610c4557610c45610c05565b50019056fea26469706673582212205338561b1b16d88639f4bea2956d457d868605d6d34ff28c8d27eec4ed9fe51064736f6c634300080d0033",
  "immutableReferences": {},
  "source": "// SPDX-License-Identifier: MIT\npragma solidity >=0.4.22 <0.9.0;\n\ncontract SafelySend {\n\n  struct Transaction {\n    uint sentTime;\n    address from;\n    address to;\n    uint amount;\n    uint unlockTime;\n    bool done;\n  }\n\n  uint public nextId;\n  address public owner;\n  uint public accumTips;\n  mapping(uint => Transaction) public transactionMap; //all transactions mapped to their uniqueId\n  mapping(address => uint[]) public fromMap; //all transactionIds for which the \"from\" address is this address\n  mapping(address => uint[]) public toMap; //all transactionIds for which the \"to\" address is this address\n\n  constructor() {\n    nextId = 0;\n    accumTips = 0;\n    owner = msg.sender;\n  }\n\n  function sendTransaction(address aToAddress, uint aDelayTime, uint aTip) public payable {\n    uint transactionVal = msg.value - aTip;\n    uint activeTime = block.timestamp + aDelayTime;\n    require(transactionVal <= msg.value, \"overflow error\");\n    require(activeTime >= block.timestamp, \"overflow error\");\n\n    Transaction memory newTx = Transaction(block.timestamp, msg.sender, aToAddress, transactionVal, activeTime, false);\n    transactionMap[nextId] = newTx;\n    fromMap[msg.sender].push(nextId);\n    toMap[aToAddress].push(nextId);\n\n    accumTips = accumTips + aTip;\n    nextId = nextId + 1;\n  }\n\n  function withdrawTransaction(uint aTransactionId) public {\n    Transaction memory thisTx = transactionMap[aTransactionId];\n    require(thisTx.done == false, \"This transaction has already been completed.\");\n    require(block.timestamp >= thisTx.unlockTime, \"Transaction can't be withdrawn yet\");\n    require(msg.sender == thisTx.to, \"Only receiver can withdraw this transaction\");\n\n    transactionMap[aTransactionId].done = true;\n    payable(thisTx.to).transfer(thisTx.amount);\n  }\n\n  function checkTransactionsWaitingReceiver(address aToAddress) public view returns (uint[] memory) {\n    return toMap[aToAddress];\n  }\n\n  function checkTransactionsWaitingSender(address aFromAddress) public view returns (uint[] memory) {\n    return fromMap[aFromAddress];\n  }\n\n  function abortTransaction(uint aTransactionId) public {\n    Transaction memory thisTx = transactionMap[aTransactionId];\n    require(msg.sender == thisTx.from, \"Only the sender can revert a transaction.\");\n    require(thisTx.done == false, \"Transaction already processed.\");\n\n    transactionMap[aTransactionId].done = true;\n    payable(thisTx.from).transfer(thisTx.amount);\n  }\n\n  function withdrawTips() public {\n    require(msg.sender == owner, \"Only owner can withdraw tips\");\n    uint temp = accumTips;\n    accumTips = 0;\n    payable(owner).transfer(temp);\n  }\n\n  function transferOwner(address newOwner) public {\n    require(msg.sender == owner, \"only owner can change owner\");\n    require(newOwner != address(0), \"don't set owner to null address\");\n    owner = newOwner;\n  }\n}\n",
  "sourcePath": "/Users/Kyle/Documents/safelysend/contract-optimism/contracts/optimism/SafelySend.sol",
  "compiler": {
    "name": "solc",
    "version": "0.8.13+commit.abaa5c0e.Emscripten.clang"
  },
  "schemaVersion": "3.4.8",
  "updatedAt": "2022-07-24T18:36:11.011Z",
  "networkType": "ethereum",
  "devdoc": {
    "kind": "dev",
    "methods": {},
    "version": 1
  },
  "userdoc": {
    "kind": "user",
    "methods": {},
    "version": 1
  }
}